:020000040800F2
:10000000000001209D340008793200087F3200088A
:10001000853200088B320008913200080000000091
:1000200000000000000000000000000097320008FF
:10003000A332000800000000AF320008BB32000805
:10004000E5340008E5340008E5340008E53400082C
:10005000E5340008C7320008E5340008E53400083C
:10006000E5340008E5340008E5340008E53400080C
:10007000E5340008E5340008D5320008E93200080C
:10008000E5340008E5340008E5340008E5340008EC
:10009000E5340008E5340008E5340008E5340008DC
:1000A000E5340008E5340008E5340008E5340008CC
:1000B000E5340008E5340008E5340008E5340008BC
:1000C000E5340008E5340008E5340008E5340008AC
:1000D000E5340008FD320008E5340008E534000886
:1000E000E5340008E5340008E5340008E53400088C
:1000F000E5340008E5340008E5340008E53400087C
:10010000E5340008E5340008E5340008E53400086B
:10011000E5340008E5340008E5340008E53400085B
:10012000E5340008E5340008E5340008E53400084B
:1001300000000000000000000000000000000000BF
:1001400000000000000000000000000000000000AF
:10015000000000000000000000000000000000009F
:10016000000000000000000000000000000000008F
:10017000000000000000000000000000000000007F
:10018000000000000000000000000000000000006F
:10019000000000000000000000000000000000005F
:1001A000000000000000000000000000000000004F
:1001B000000000000000000000000000000000003F
:1001C000000000000000000000000000000000002F
:1001D000000000000000000000000000000000001F
:0401E0005FF8E0F1F3
:1001E80010B5054C237833B9044B13B10448AFF369
:1001F80000800123237010BD0002002000000000D1
:1002080014B2000808B5034B1BB103490348AFF308
:10021800008008BD000000000402002014B200089D
:10022800034613F8012B002AFBD1181A013870472E
:1002380081F0004102E000BF83F0004330B54FEA8F
:1002480041044FEA430594EA050F08BF90EA020FFC
:100258001FBF54EA000C55EA020C7FEA645C7FEA8F
:10026800655C00F0E2804FEA5454D4EB5555B8BFB2
:100278006D420CDD2C4480EA020281EA030382EA23
:10028800000083EA010180EA020281EA0303362DB5
:1002980088BF30BD11F0004F4FEA01314FF4801C88
:1002A8004CEA113102D0404261EB410113F0004F9A
:1002B8004FEA03334CEA133302D0524263EB430351
:1002C80094EA050F00F0A780A4F10104D5F1200EEF
:1002D8000DDB02FA0EFC22FA05F2801841F100014A
:1002E80003FA0EF2801843FA05F359410EE0A5F11E
:1002F80020050EF1200E012A03FA0EFC28BF4CF04F
:10030800020C43FA05F3C01851EBE37101F0004504
:1003180007D54FF0000EDCF1000C7EEB00006EEB11
:100328000101B1F5801F1BD3B1F5001F0CD349089B
:100338005FEA30004FEA3C0C04F101044FEA4452F2
:1003480012F5800F80F09A80BCF1004F08BF5FEA79
:10035800500C50F1000041EB045141EA050130BD59
:100368005FEA4C0C404141EB0101013C28BFB1F56B
:10037800801FE9D291F0000F04BF01460020B1FAB6
:1003880081F308BF2033A3F10B03B3F120020CDA89
:100398000C3208DD02F1140CC2F10C0201FA0CF067
:1003A80021FA02F10CE002F11402D8BFC2F1200CCC
:1003B80001FA02F120FA0CFCDCBF41EA0C01904082
:1003C800E41AA2BF01EB0451294330BD6FEA0404CB
:1003D8001F3C1CDA0C340EDC04F11404C4F12002B6
:1003E80020FA04F001FA02F340EA030021FA04F3C8
:1003F80045EA030130BDC4F10C04C4F1200220FA1F
:1004080002F001FA04F340EA0300294630BD21FA5C
:1004180004F0294630BD94F0000F83F4801306BF22
:1004280081F480110134013D4EE77FEA645C18BF16
:100438007FEA655C29D094EA050F08BF90EA020FAD
:1004480005D054EA000C04BF1946104630BD91EAA5
:10045800030F1EBF0021002030BD5FEA545C05D1A8
:100468004000494128BF41F0004130BD14F58004E7
:100478003CBF01F5801130BD01F0004545F0FE415B
:1004880041F470014FF0000030BD7FEA645C1ABF90
:10049800194610467FEA655C1CBF0B46024650EAC7
:1004A800013406BF52EA033591EA030F41F40021F3
:1004B80030BD00BF90F0000F04BF0021704730B579
:1004C8004FF4806404F132044FF000054FF000014E
:1004D80050E700BF90F0000F04BF0021704730B50F
:1004E8004FF4806404F1320410F0004548BF4042E4
:1004F8004FF000013EE700BF42004FEAE2014FEA39
:1005080031014FEA02701FBF12F07F4393F07F4F13
:1005180081F06051704732F07F4208BF704793F016
:100528007F4F04BF41F40021704730B54FF4607429
:1005380001F0004521F000411CE700BF50EA01022C
:1005480008BF704730B54FF000050AE050EA0102D5
:1005580008BF704730B511F0004502D5404261EB45
:1005680041014FF4806404F132045FEA915C3FF486
:10057800D8AE4FF003025FEADC0C18BF03325FEA23
:10058800DC0C18BF033202EBDC02C2F1200300FAD4
:1005980003FC20FA02F001FA03FE40EA0E0021FAF9
:1005A80002F11444BDE600BF70B54FF0FF0C4CF4E7
:1005B800E06C1CEA11541DBF1CEA135594EA0C0F99
:1005C80095EA0C0F00F0DEF82C4481EA030621EAD4
:1005D8004C5123EA4C5350EA013518BF52EA03350F
:1005E80041F4801143F4801338D0A0FB02CE4FF0C1
:1005F8000005E1FB02E506F00042E0FB03E54FF0F1
:100608000006E1FB03569CF0000F18BF4EF0010EE8
:10061800A4F1FF04B6F5007F64F5407404D25FEAE4
:100628004E0E6D4146EB060642EAC62141EA555197
:100638004FEAC52040EA5E504FEACE2EB4F1FD0CD9
:1006480088BFBCF5E06F1ED8BEF1004F08BF5FEA57
:10065800500E50F1000041EB045170BD06F0004609
:1006680046EA010140EA020081EA0301B4EB5C04B6
:10067800C2BFD4EB0C0541EA045170BD41F48011AE
:100688004FF0000E013C00F3AB8014F1360FDEBFD3
:10069800002001F0004170BDC4F10004203C35DAAF
:1006A8000C341BDC04F11404C4F1200500FA05F332
:1006B80020FA04F001FA05F240EA020001F00042D3
:1006C80021F0004110EBD37021FA04F642EB060149
:1006D8005EEA430E08BF20EAD37070BDC4F10C0473
:1006E800C4F1200500FA04F320FA05F001FA04F237
:1006F80040EA020001F0004110EBD37041F1000123
:100708005EEA430E08BF20EAD37070BDC4F120052D
:1007180000FA05F24EEA020E20FA04F301FA05F295
:1007280043EA020321FA04F001F0004121FA04F23D
:1007380020EA020000EBD3705EEA430E08BF20EA0D
:10074800D37070BD94F0000F0FD101F00046400047
:1007580041EB010111F4801F08BF013CF7D041EAC9
:10076800060195F0000F18BF704703F000465200CD
:1007780043EB030313F4801F08BF013DF7D043EA9E
:100788000603704794EA0C0F0CEA135518BF95EA54
:100798000C0F0CD050EA410618BF52EA4306D1D1DB
:1007A80081EA030101F000414FF0000070BD50EAFA
:1007B800410606BF1046194652EA430619D094EA84
:1007C8000C0F02D150EA013613D195EA0C0F05D16E
:1007D80052EA03361CBF104619460AD181EA0301C2
:1007E80001F0004141F0FE4141F470014FF000007A
:1007F80070BD41F0FE4141F4780170BD70B54FF015
:10080800FF0C4CF4E06C1CEA11541DBF1CEA135594
:1008180094EA0C0F95EA0C0F00F0A7F8A4EB050476
:1008280081EA030E52EA03354FEA013100F088806D
:100838004FEA03334FF0805545EA131343EA126336
:100848004FEA022245EA111545EA10654FEA0026EB
:100858000EF000419D4208BF964244F1FD0404F5A4
:10086800407402D25B084FEA3202B61A65EB030500
:100878005B084FEA32024FF480104FF4002CB6EBBD
:10088800020E75EB030E22BFB61A754640EA0C003D
:100898005B084FEA3202B6EB020E75EB030E22BF7D
:1008A800B61A754640EA5C005B084FEA3202B6EBBE
:1008B800020E75EB030E22BFB61A754640EA9C007D
:1008C8005B084FEA3202B6EB020E75EB030E22BF4D
:1008D800B61A754640EADC0055EA060E18D04FEA0B
:1008E800051545EA16754FEA06164FEAC30343EAAB
:1008F80052734FEAC2025FEA1C1CC0D111F4801F78
:100908000BD141EA00014FF000004FF0004CB6E770
:1009180011F4801F04BF01430020B4F1FD0C88BF0F
:10092800BCF5E06F3FF6AFAEB5EB030C04BFB6EB1A
:10093800020C5FEA500C50F1000041EB045170BD0D
:100948000EF0004E4EEA113114EB5C04C2BFD4EB3A
:100958000C0541EA045170BD41F480114FF0000EBE
:10096800013C90E645EA060E8DE60CEA135594EA3A
:100978000C0F08BF95EA0C0F3FF43BAF94EA0C0F3D
:100988000AD150EA01347FF434AF95EA0C0F7FF4B2
:1009980025AF104619462CE795EA0C0F06D152EA06
:1009A80003353FF4FDAE1046194622E750EA4106EA
:1009B80018BF52EA43067FF4C5AE50EA41047FF4FB
:1009C8000DAF52EA43057FF4EBAE12E74FF0FF3C60
:1009D80006E000BF4FF0010C02E000BF4FF0010C31
:1009E8004DF804CD4FEA410C7FEA6C5C4FEA430CAA
:1009F80018BF7FEA6C5C1BD001B050EA410C0CBFF9
:100A080052EA430C91EA030F02BF90EA020F00205A
:100A1800704710F1000F91EA030F58BF994208BFC1
:100A280090422CBFD8176FEAE37040F0010070477E
:100A38004FEA410C7FEA6C5C02D150EA013C07D1D5
:100A48004FEA430C7FEA6C5CD6D152EA033CD3D020
:100A58005DF8040B704700BF8446104662468C461A
:100A68001946634600E000BF01B5FFF7B7FF00284D
:100A780048BF10F1000F01BD4DF808EDFFF7F4FF76
:100A88000CBF012000205DF808FB00BF4DF808ED01
:100A9800FFF7EAFF34BF012000205DF808FB00BF24
:100AA8004DF808EDFFF7E0FF94BF012000205DF846
:100AB80008FB00BF4DF808EDFFF7CEFF94BF0120FB
:100AC80000205DF808FB00BF4DF808EDFFF7C4FFF4
:100AD80034BF012000205DF808FB00BF4FEA410C3D
:100AE8007FEA6C5C02D150EA013C0AD14FEA430C20
:100AF8007FEA6C5C02D152EA033C02D14FF000005D
:100B080070474FF0010070474FEA410212F500129A
:100B180015D211D56FF47873B3EB625212D94FEA3C
:100B2800C12343F0004343EA505311F0004F23FA26
:100B380002F018BF404270474FF00000704750EA7B
:100B4800013005D111F0004008BF6FF00040704738
:100B58004FF00000704700BF4A0011D212F5001292
:100B680011D20DD56FF47873B3EB62520ED44FEAFD
:100B7800C12343F0004343EA505323FA02F070477D
:100B88004FF00000704750EA013002D14FF0FF30BB
:100B980070474FF0000070474FEA4102B2F1E0435E
:100BA80024BFB3F5001CDCF1FE5C0DD901F0004C4C
:100BB8004FEAC0024CEA5070B2F1004F40EB83009C
:100BC80008BF20F00100704711F0804F21D113F1C8
:100BD8003872BCBF01F00040704741F480114FEA01
:100BE8005252C2F11802C2F1200C10FA0CF320FA8A
:100BF80002F018BF40F001004FEAC1234FEAD323A7
:100C080003FA0CFC40EA0C0023FA02F34FEA430310
:100C1800CCE77FEA625307D150EA01331EBF4FF099
:100C2800FE4040F44000704701F0004040F0FE40B4
:100C380040F40000704700BF80F0004002E000BFB1
:100C480081F0004142001FBF5FEA410392EA030FAF
:100C58007FEA226C7FEA236C6AD04FEA1262D2EBF9
:100C68001363C1BFD218414048404140B8BF5B42FE
:100C7800192B88BF704710F0004F40F4000020F097
:100C88007F4018BF404211F0004F41F4000121F0AD
:100C98007F4118BF494292EA030F3FD0A2F10102F7
:100CA80041FA03FC10EB0C00C3F1200301FA03F135
:100CB80000F0004302D5494260EB4000B0F5000F58
:100CC80013D3B0F1807F06D340084FEA310102F117
:100CD8000102FE2A51D2B1F1004F40EBC25008BFC9
:100CE80020F0010040EA03007047490040EB000093
:100CF800013A28BFB0F5000FEDD2B0FA80FCACF194
:100D0800080CB2EB0C0200FA0CF0AABF00EBC250C0
:100D180052421843BCBFD0401843704792F0000FAE
:100D280081F4000106BF80F400000132013BB5E701
:100D38004FEA41037FEA226C18BF7FEA236C21D077
:100D480092EA030F04D092F0000F08BF08467047DC
:100D580090EA010F1CBF0020704712F07F4F04D1AA
:100D6800400028BF40F00040704712F100723CBFBD
:100D780000F50000704700F0004343F0FE4040F4E7
:100D8800000070477FEA226216BF08467FEA2363A5
:100D98000146420206BF5FEA412390EA010F40F490
:100DA800800070474FF0000304E000BF10F00043DC
:100DB80048BF40425FEA000C08BF704743F09643C3
:100DC80001464FF000001CE050EA010208BF7047DE
:100DD8004FF000030AE000BF50EA010208BF704765
:100DE80011F0004302D5404261EB41015FEA010C7A
:100DF80002BF84460146002043F0B64308BFA3F172
:100E08008053A3F50003BCFA8CF2083AA3EBC25353
:100E180010DB01FA02FC634400FA02FCC2F1200272
:100E2800BCF1004F20FA02F243EB020008BF20F0A9
:100E38000100704702F1200201FA02FCC2F120020F
:100E480050EA4C0021FA02F243EB020008BF20EA04
:100E5800DC7070474FF0FF0C1CEAD0521EBF1CEA32
:100E6800D15392EA0C0F93EA0C0F6FD01A4480EA20
:100E7800010C400218BF5FEA41211ED04FF0006309
:100E880043EA501043EA5111A0FB01310CF0004035
:100E9800B1F5000F3EBF490041EAD3715B0040EA5B
:100EA800010062F17F02FD2A1DD8B3F1004F40EB2B
:100EB800C25008BF20F00100704790F0000F0CF0FE
:100EC800004C08BF49024CEA502040EA51207F3AC2
:100ED800C2BFD2F1FF0340EAC250704740F400009D
:100EE8004FF00003013A5DDC12F1190FDCBF00F08E
:100EF80000407047C2F10002410021FA02F1C2F13C
:100F0800200200FA02FC5FEA310040F1000053EAD7
:100F18004C0308BF20EADC70704792F0000F00F025
:100F2800004C02BF400010F4000F013AF9D040EA2B
:100F38000C0093F0000F01F0004C02BF490011F4BF
:100F4800000F013BF9D041EA0C018FE70CEAD153BD
:100F580092EA0C0F18BF93EA0C0F0AD030F0004C3D
:100F680018BF31F0004CD8D180EA010000F00040F1
:100F7800704790F0000F17BF90F0004F084691F0AF
:100F8800000F91F0004F14D092EA0C0F01D14202E9
:100F98000FD193EA0C0F03D14B0218BF084608D1B2
:100FA80080EA010000F0004040F0FE4040F40000FC
:100FB800704740F0FE4040F4400070474FF0FF0C8F
:100FC8001CEAD0521EBF1CEAD15392EA0C0F93EAD6
:100FD8000C0F69D0A2EB030280EA010C49024FEA28
:100FE800402037D04FF0805343EA111143EA1013E1
:100FF8000CF000408B4238BF5B0042F17D024FF499
:10100800000C8B4224BF5B1A40EA0C00B3EB510F73
:1010180024BFA3EB510340EA5C00B3EB910F24BF5C
:10102800A3EB910340EA9C00B3EBD10F24BFA3EBE1
:10103800D10340EADC001B0118BF5FEA1C1CE0D1A9
:10104800FD2A3FF650AF8B4240EBC25008BF20F05C
:10105800010070470CF0004C4CEA50207F32C2BFB0
:10106800D2F1FF0340EAC250704740F400004FF04D
:101078000003013A37E792F0000F00F0004C02BF7E
:10108800400010F4000F013AF9D040EA0C0093F048
:10109800000F01F0004C02BF490011F4000F013BA2
:1010A800F9D041EA0C0195E70CEAD15392EA0C0F0A
:1010B80008D142027FF47DAF93EA0C0F7FF470AF42
:1010C800084676E793EA0C0F04D14B023FF44CAF85
:1010D80008466EE730F0004C18BF31F0004CCAD11A
:1010E80030F000427FF45CAF31F000437FF43CAF56
:1010F8005FE700BF42000ED2B2F1FE4F0BD34FF0B4
:101108009E03B3EB126209D44FEA002343F0004375
:1011180023FA02F070474FF00000704712F1610F98
:1011280001D1420202D14FF0FF3070474FF000006A
:10113800704700BF38B50C460546214628460022B0
:101148000023FFF7A3FC28B928462146BDE838400C
:1011580000F00AB8284604F1004100F005F84042C2
:1011680061EB410138BD00BFD0B500220B4B0646EC
:101178000F46FFF719FAFFF7EFFC0446FFF79AF955
:101188000022074BFFF710FA02460B463046394655
:10119800FFF752F8FFF7E0FC2146D0BD0000F03D14
:1011A8000000F041000000002DE9B04384B004AF16
:1011B80002F096F900F0E2FC00F06CFD00F044FD4E
:1011C80000F018FD4FF49662A149A24803F01EFEF4
:1011D80001222021A04803F02DF942F2107002F0FC
:1011E800E1F9002220219C4803F024F99B4B0022BE
:1011F8001A609A4B1B68002B0DD04FF4FA7002F05E
:10120800D1F9974801F01AFE4FF4FA7002F0CAF9C2
:10121800944801F013FE914B01221A60924B002270
:101228001A600CE0914801F009FE0346904A1360E9
:101238008F4B1B68002B0AD0C82002F0B3F98A4BE9
:101248001B685A1C88490A60092BEBDD00E000BFC7
:10125800874B1B68B3F1FF3F00D1C7E7962002F028
:10126800A1F9814B00221A600CE0824801F0E6FDEA
:1012780003467F4A13607E4B1B68002B0AD0C820A8
:1012880002F090F9784B1B685A1C77490A60092BC1
:10129800EBDD00E000BF764B1B68B3F1FF3F00D1E8
:1012A800A4E7962002F07EF96F4B00221A600CE04A
:1012B800714801F0C3FD03466D4A13606C4B1B680F
:1012C800002B0AD00A2002F06DF9674B1B685A1CE4
:1012D80065490A60092BEBDD00E000BF644B1B6821
:1012E800B3F1FF3F00D181E7962002F05BF95E4B36
:1012F80000221A600BE001F0D7FD03465C4A136038
:101308005B4B1B68002B0AD0C82002F04BF9564BE8
:101318001B685A1C54490A60092BECDD00E000BF29
:10132800534B1B68B3F1FF3F00D15FE7962002F0F3
:1013380039F94D4B00221A600CE0504801F07EFD4F
:1013480003464B4A13604A4B1B68002B0AD0C8203F
:1013580002F028F9444B1B685A1C43490A60092BC0
:10136800EBDD00E000BF424B1B68B3F1FF3F00D14B
:101378003CE7962002F016F93B4B00221A600CE07D
:101388003F4801F05BFD0346394A1360384B1B6840
:10139800002B0AD0C82002F005F9334B1B685A1CF1
:1013A80031490A60092BEBDD00E000BF304B1B68B8
:1013B800B3F1FF3F00D119E7962002F0F3F82A4B6A
:1013C80000221A600BE001F0E9FD0346284A136089
:1013D800274B1B68002B0AD0C82002F0E3F8224BE9
:1013E8001B685A1C20490A60092BECDD00E000BF8D
:1013F8001F4B1B68B3F1FF3F00D1F7E6962002F0C0
:10140800D1F8194B00221A600CE01E4801F016FDB5
:101418000346174A1360164B1B68002B0AD0C820D6
:1014280002F0C0F8104B1B685A1C0F490A60092BC0
:10143800EBDD00E000BF0E4B1B68B3F1FF3F00D1AE
:10144800D4E6962002F0AEF8074B00221A6028E096
:1014580070040020AC030020000C01400C030020A5
:1014680030B200083CB200081C0200204CB2000850
:101478001800002054B200085CB2000868B20008E6
:1014880074B2000880B200089C4801F0D7FC0346FB
:101498009B4A13609A4B1B68002B0AD0C82002F0A5
:1014A80081F8984B1B685A1C96490A60092BEBDD9A
:1014B80000E000BF924B1B68B3F1FF3F00D195E6F7
:1014C800962002F06FF88F4B00221A600BE001F0B3
:1014D80029FD03468A4A1360894B1B68002B0AD0F2
:1014E800C82002F05FF8874B1B685A1C85490A60C0
:1014F800092BECDD00E000BF814B1B68B3F1FF3F17
:1015080000D173E6962002F04DF87E4B00221A6057
:101518000CE07D4801F092FC0346794A1360784B51
:101528001B68002B0AD0C82002F03CF8754B1B68DA
:101538005A1C74490A60092BEBDD00E000BF704BB0
:101548001B68B3F1FF3F00D150E6962002F02AF85D
:101558006C4B00221A600CE06C4801F06FFC0346EB
:10156800674A1360664B1B68002B0AD0C82002F03C
:1015780019F8644B1B685A1C62490A60092BEBDD99
:1015880000E000BF5E4B1B68B3F1FF3F00D12DE6C2
:10159800962002F007F85B4B00221A600BE001F07E
:1015A8003BFD0346564A1360554B1B68002B0AD077
:1015B800C82001F0F7FF534B1B685A1C51490A60B9
:1015C800632BECDD00E000BF4D4B1B68B3F1FF3F20
:1015D80000D10BE6962001F0E5FF4A4B00221A6085
:1015E8000CE04B4801F02AFC0346454A1360444B83
:1015F8001B68002B0AD0C82001F0D4FF414B1B68A0
:101608005A1C40490A60092BEBDD00E000BF3C4B47
:101618001B68B3F1FF3F00D1E8E5962001F0C2FF57
:10162800384B00221A600CE03A4801F007FC0346E8
:10163800334A1360324B1B68002B0AD0C82001F0D4
:10164800B1FF304B1B685A1C2E490A60092BEBDD91
:1016580000E000BF2A4B1B68B3F1FF3F00D1C5E58E
:10166800962001F09FFF274B00221A600DE02A48C0
:1016780001F0E4FB0346224A1360214B1B68002B50
:101688000BD04FF47A7001F08DFF1E4B1B685A1C6B
:101698001C490A60092BEADD00E000BF184B1B68F3
:1016A800B3F1FF3F00D1A1E5962001F07BFF154B78
:1016B80000221A600CE0194801F0C0FB0346104AEA
:1016C80013600F4B1B68002B0AD0C82001F06AFF7B
:1016D8000C4B1B685A1C0B490A60092BEBDD00E018
:1016E80000BF074B1B68B3F1FF3F00D17EE5962092
:1016F80001F058FF034B00221A601EE08CB200086C
:10170800180000201C0200209CB20008BCB200088F
:10171800C8B20008E8B2000804B3000814B300080F
:10172800B14801F08BFB0346B04A1360AF4B1B680E
:10173800002B0AD0C82001F035FFAD4B1B685A1C9E
:10174800AB490A60092BEBDD00E000BFA74B1B6823
:10175800B3F1FF3F00D149E501222021A54802F05D
:1017680069FE00222021A44802F064FE4FF47A703A
:1017780001F018FF4FF496620021A04803F0F8FF2B
:101788009F4803F0C3FB4FF496629C499C4803F0C2
:101798003DFB9C4A9C4B14460FCB07C42380023464
:1017A8001B0C23709748FEF73BFD03469BB21A4675
:1017B8009449934803F0BEFA4FF47A7001F0F2FEB0
:1017C8008E49924800F068FE904BB3F87C3018467A
:1017D800FFF7E8FA03468E4A13608C4BDB6D184618
:1017E800FEF768FE02460B468A49C1E90023874B8B
:1017F8005B6D1846FEF75EFE02460B468649C1E958
:101808000023854BD3E9000175A3D3E90023FEF734
:10181800F5FF02460B4614461D467E4BD3E90001F0
:101828006FA3D3E90023FEF7E9FF02460B467B4985
:1018380001917B4900912046294601F0D7F9784B60
:10184800D3E900014FF000024FF00003FFF714F94D
:101858000346002B0BD1714BD3E900014FF0000276
:101868004FF00003FFF708F90346002B03D06D4B38
:1018780001221A607AE7012220215F4802F0DAFD8E
:10188800642001F08FFE684B00221A806422002138
:101898005C4803F06DFF5B4A644B14460FCB84E849
:1018A8000F005848FEF7BCFC03469BB21A46554940
:1018B800534803F03FFA4FF4966200214F4803F073
:1018C80057FF4F4803F022FB4FF496624B494C48B0
:1018D80003F09CFA642200214A4803F049FF494A70
:1018E800534B14460FCB84E80F004648FEF798FC8C
:1018F80003469BB21A464349414803F01BFA4A4B38
:101908001B88B3F5FA7F80F09F800A2001F04AFE19
:1019180048493A4804F0D7FD0346002B06D1424B0C
:101928001B8801339AB2404B1A80E8E73E4B0022ED
:101938001A8000BF4FF4967001F034FE6422002133
:101948003D4803F015FF364BD3E90089334BD3E903
:1019580000452F4B1B6839491846FFF72FFB0346F4
:101968001A462B4B1A602A4B1B681846FEF7C4FD13
:1019780002460B46CDE90223CDE9004542464B46D7
:101988002F492D4804F072FD642200211D4803F000
:10199800EFFE2948FEF744FC0346023B1A46294954
:1019A800184804F063FD4FF496620021134803F0D1
:1019B800DFFE134803F0AAFA4FF496620F49104865
:1019C80003F024FA0F48FEF72BFC03469BB21A4695
:1019D8000C490B4803F0AEF9642001F0E3FD57E031
:1019E80000000000006AF84028B300081800002032
:1019F8001C020020000C0140001801407004002067
:101A0800AC0300202002002060B30008EC03002093
:101A180020030020F0020020E8020020000300203C
:101A2800F8020020100300200803002070B300080B
:101A380080B3000890B300088402002000007A44B4
:101A480094B30008DCB30008464B00221A804FF418
:101A580096620021444803F08BFE444803F056FA8E
:101A68004FF496624049414803F0D0F9404A414B4F
:101A780014460FCB84E80F003D48FEF7D1FB034620
:101A88009BB21A463A49394803F054F9FFF7AEBBFE
:101A9800344B1B88632B14D80A2001F083FD3E21A8
:101AA800314804F003FD0346002B06D12D4B1B885B
:101AB80001339AB22B4B1A80EAE72A4B00221A808C
:101AC80023E0284B00221A804FF496620021264812
:101AD80003F04EFE254803F019FA4FF496622249A6
:101AE800224803F093F9224A224B14460FCB84E88C
:101AF8000F001F48FEF794FB03469BB21A461C4989
:101B08001A4803F017F9FFF771BB4FF496620021EA
:101B1800154803F02DFE154803F0F8F94FF49662C6
:101B28001149124803F072F91348FEF779FB03468E
:101B38009BB21A4610490D4803F0FCF8642001F0E6
:101B480031FD4FF496620021074803F011FE074863
:101B580003F0DCF94FF496620349044803F056F9A0
:101B6800FFE500BF0803002070040020AC0300203C
:101B78002002002070B300088402002080B590B0D5
:101B880000AF07F1180328220021184603F0F0FDE2
:101B98003B1D00221A605A609A60DA601A610223BB
:101BA800BB610123BB621023FB6200237B6307F147
:101BB8001803184602F056FC0346002B01D001F02A
:101BC80069FA0F237B600023BB608023FB604FF41E
:101BD80080633B6100237B613B1D0021184602F0B6
:101BE800C1FE0346002B01D001F054FA00BF403774
:101BF800BD4680BD80B500AF114B124A1A60104B2C
:101C08004FF4E1325A600E4B00229A600C4B0022CE
:101C1800DA600B4B00221A61094B0C225A61084BFF
:101C280000229A61064B0022DA61054803F034F875
:101C38000346002B01D001F02DFA00BF80BD00BF84
:101C4800AC0300200038014080B582B000AF104BD3
:101C58005B690F4A43F0010353610D4B5B6903F065
:101C680001037B607B68012200210E2001F095FDB5
:101C78000E2001F0AEFD002200210F2001F08DFDA5
:101C88000F2001F0A6FD00BF0837BD4680BD00BF8C
:101C98000010024080B588B000AF07F110030022A1
:101CA8001A605A609A60DA60264B9B69254A43F0AD
:101CB80040039361234B9B6903F04003FB60FB687F
:101CC800204B9B691F4A43F0040393611D4B9B699A
:101CD80003F00403BB60BB681A4B9B69194A43F0C5
:101CE80008039361174B9B6903F008037B607B68CB
:101CF80000222021144802F09DFB002220211348D5
:101D080002F098FB20233B6101237B610223BB6126
:101D18000223FB6107F1100319460B4802F0F6F99C
:101D280020233B6101237B610223BB610223FB610A
:101D380007F110031946054802F0E8F900BF2037FB
:101D4800BD4680BD0010024000180140000C014053
:101D580080B485B000AF78600B46FB707B68FB6091
:101D680017E07B681B782A2B07D07B681B781F2B12
:101D780003D97B681B787A2B01D9FF2310E07B6895
:101D88001B782C2B02D1FB78013BFB707B6801335D
:101D98007B60FB78002BE4D17A68FB68D31ADBB24E
:101DA80018461437BD4680BC704780B485B000AF74
:101DB80003460A46FB711346BB710123FB6004E02E
:101DC800FA79FB6802FB03F3FB60BB795A1EBA7110
:101DD800002BF5D1FB6818461437BD4680BC704708
:101DE80080B588B000AF786039607B68FB610023FC
:101DF800BB6100237B610023FB740023BB740023B9
:101E08003B74FB691B782D2B06D13B7C43F0020306
:101E18003B74FB690133FB61FB691B782C2B2CD0CD
:101E2800FB691B782A2B28D0FB691B782E2B07D13E
:101E38003B7C43F001033B74FB690133FB610CE01D
:101E4800FB691B78392B03D8FB691B782F2B04D827
:101E58000023FB740023BB740FE03B7C03F00103F9
:101E6800002B03D0BB7C0133BB7402E0FB7C013345
:101E7800FB74FB690133FB61C3E73B7C03F002039E
:101E8800002B02D07B6801337B6000237B7417E052
:101E9800FA7C7B7CD31ADBB2013BDBB219460A2001
:101EA800FFF783FF01467B7C7A6813441B78303B3D
:101EB80003FB01F3BA691344BB617B7C01337B7478
:101EC8007A7CFB7C9A42E3D3BB7C082B01D908239C
:101ED800BB743B68BA7C1A7000237B741BE0BA7C25
:101EE8007B7CD31ADBB2013BDBB219460A20FFF731
:101EF8005CFF0146FB7C5A1C7B7C13441A467B68BA
:101F080013441B78303B03FB01F37A6913447B616C
:101F18007B7C01337B747A7CBB7C9A42DFD3BB7CAD
:101F280019460A20FFF741FF0246BB6903FB02F28C
:101F38007B691344FB603B7C03F00203002B02D057
:101F4800FB685B42FB60FB6818462037BD4680BDD6
:101F580080B584B000AF786039602649386804F0ED
:101F6800B2FAF8600621F868FFF7F2FE0346FB7242
:101F7800FB7AFF2B0DD0FB7AFA68134407F10A02AB
:101F880011461846FFF72CFF0346DAB27B6883F840
:101F980061200721F868FFF7DBFE0346FB72FB7A36
:101FA800FF2B0DD0FB7AFA68134407F10A02114699
:101FB8001846FFF715FF0346DAB27B6883F86220FC
:101FC8000921F868FFF7C4FE0346FB72FB7AFF2B72
:101FD8000BD0FB7AFA68134407F10A021146184637
:101FE800FFF7FEFE02467B689A6700BF1037BD46C2
:101FF80080BD00BFFCB3000880B586B000AF786034
:1020080039604649386804F05EFA38610221386957
:10201800FFF79EFE0346FB73FB7BFF2B0DD0FB7B7C
:102028003A69134407F10E0211461846FFF7D8FE25
:102038000346DAB27B6883F86F200023FB751FE044
:10204800FB7D0333DBB219463869FFF781FE03468F
:10205800FB73FB7BFF2B17D0FB7B3A69134407F11B
:102068000E0211461846FFF7BBFE0246FB7DD1B2B1
:102078007A6813440A4683F86320FB7D0133FB75B5
:10208800FB7D0B2BDCD900E000BF0F213869FFF77F
:102098005FFE0346FB73FB7BFF2B0DD0FB7B3A698E
:1020A800134407F10E0211461846FFF799FE03463E
:1020B8009AB27B68A3F8702010213869FFF748FEB0
:1020C8000346FB73FB7BFF2B0DD0FB7B3A69134464
:1020D80007F10E0211461846FFF782FE03469AB230
:1020E8007B68A3F8722011213869FFF731FE034697
:1020F800FB73FB7BFF2B0DD0FB7B3A69134407F185
:102108000E0211461846FFF76BFE03469AB27B682B
:10211800A3F8742000BF1837BD4680BD04B400087A
:1021280090B589B000AF78603960B849386804F074
:10213800CAF9F8610121F869FFF70AFE0346FB7640
:10214800FB7EFF2B3AD0FB7EFA69134407F10F029E
:1021580011461846FFF744FE03461C46FB7B19460A
:102168000A20FFF722FE0346B4FBF3F37B617B6989
:10217800A74AA2FB03235B0BDAB27B6883F84E20E5
:102188007B69A44AA2FB03235A09A24BA3FB0213AF
:102198005B09642101FB03F3D31ADAB27B6883F885
:1021A8004F207A699B4BA3FB02135B09642101FB57
:1021B80003F3D31ADAB27B6883F850200321F86955
:1021C800FFF7C6FD0346FB76FB7EFF2B59D0FB7E4F
:1021D800FA69134407F10F0211461846FFF700FE8B
:1021E80003467B61FB7B0233DBB219460A20FFF70B
:1021F800DCFD02467B69B3FBF2F27B685A65FB7B28
:102208000233DBB219460A20FFF7CFFD02467B698D
:10221800B3FBF2F102FB01F29B1A1846FEF7C2FD6E
:1022280003463B617B685C6D05210A20FFF7BDFD15
:10223800034603FB04F31846FEF7B4FD0446FB7B94
:10224800C3F10503DBB219460A20FFF7AEFD0346CA
:102258001846FEF7A7FD034639691846FEF7FAFD4A
:1022680003466D491846FEF7A9FE0346194620465F
:10227800FEF7E8FC03461846FEF73CFF02467B687B
:102288005A650421F869FFF763FD0346FB76FB7E78
:10229800FF2B06D0FB7EFA6913441A787B6883F813
:1022A80058200521F869FFF753FD0346FB76FB7EAE
:1022B800FF2B59D0FB7EFA69134407F10F02114630
:1022C8001846FFF78DFD03467B61FB7B0233DBB2CB
:1022D80019460A20FFF769FD02467B69B3FBF2F253
:1022E8007B68DA65FB7B0233DBB219460A20FFF70D
:1022F8005CFD02467B69B3FBF2F102FB01F29B1A1B
:102308001846FEF74FFD03463B617B68DC6D0521EF
:102318000A20FFF74AFD034603FB04F31846FEF7BD
:1023280041FD0446FB7BC3F10503DBB219460A20D5
:10233800FFF73BFD03461846FEF734FD03463969AF
:102348001846FEF787FD034633491846FEF736FE62
:10235800034619462046FEF775FC03461846FEF765
:10236800C9FE02467B68DA650621F869FFF7F0FCCA
:102378000346FB76FB7EFF2B06D0FB7EFA691344EF
:102388001A787B6883F860200921F869FFF7E0FC78
:102398000346FB76FB7EFF2B34D0FB7EFA691344A1
:1023A80007F10F0211461846FFF71AFD03467B6135
:1023B8007B69174AA2FB03235B0BDAB27B6883F8BD
:1023C8004D207B69134AA2FB03235A09114BA3FB37
:1023D80002135B09642101FB03F3D31ADAB27B68A9
:1023E80083F84C207A690B4BA3FB02135B09642129
:1023F80001FB03F3D31A9BB203F5FA639AB27B6825
:10240800A3F84A2000BF2437BD4690BD0CB400088D
:102418005917B7D11F85EB510000704280B584B0C1
:1024280000AF786039601B49386804F04CF8F860F0
:102438000721F868FFF78CFC0346FB72FB7AFF2B39
:1024480023D0FB7AFA68134407F10A0211461846AA
:10245800FFF7C6FC03469AB27B68A3F87C20BB7AD8
:10246800022B12D8BB7AC3F10303DBB219460A2048
:10247800FFF79BFC02467B68B3F87C3092B202FB04
:1024880003F39AB27B68A3F87C2000BF1037BD46DF
:1024980080BD00BF14B4000880B582B000AF78607A
:1024A800396039687868FFF753FD39687868FFF74D
:1024B800A3FD39687868FFF733FE39687868FFF755
:1024C800ADFF00BF0837BD4680BD0000000000001A
:1024D80080B584B000AFC7E90201C7E9002318A39B
:1024E800D3E90023D7E90001FEF7D0FA0346002B11
:1024F80009D115A3D3E90023D7E90001FEF7E4FACF
:102508000346002B01D0012316E011A3D3E90023D1
:10251800D7E90201FEF7BAFA0346002B09D10EA348
:10252800D3E90023D7E90201FEF7CEFA0346002BD0
:1025380001D0012300E0002318461037BD4680BDB6
:10254800C74B378941005240143FC6DCB53A614059
:1025580061545227A089EA3FC442AD69DEE94B4085
:102568002DE9B04386B000AFC7E90201C7E90023EF
:102578004FF000024FF00003C7E90423D7E9020136
:1025880002460B46FDF75AFE02460B461046194610
:102598004FF00002BC4BFDF74FFE02460B4690463B
:1025A80099464FF00002B94BD7E90001FDF7FCFF4F
:1025B80002460B4640464946FDF740FE02460B469A
:1025C80090469946ACA3D3E90023D7E90001FDF76B
:1025D800EBFF02460B4610461946D7E90023FDF7E4
:1025E800E3FF02460B4640464946FDF727FE0246F2
:1025F8000B4690469946A2A3D3E90023D7E90201E6
:10260800FDF7D2FF02460B4610461946D7E90023CC
:10261800FDF7CAFF02460B4640464946FDF70EFE47
:1026280002460B4690469946BC68FB6823F0004575
:102638002046294607F056FD8FA3D3E90023FDF76E
:10264800B3FF02460B4640464946FDF7F7FD0246F2
:102658000B46C7E904234FF000028D4BD7E902016E
:10266800FDF7A2FF02460B4610461946894BD3E9EF
:102678000023FDF799FF02460B461046194607F05E
:10268800EBFC4FF00002844BFDF78EFF02460B4631
:1026980014461D46D7E9020102460B46FDF7CEFD5A
:1026A80002460B46104619467A4BD3E90023FDF73C
:1026B8007BFF02460B461046194607F0CDFC4FF04B
:1026C8000002754BFDF770FF02460B46204629466F
:1026D800FDF7B4FD02460B461046194602460B4666
:1026E800FDF7ACFD02460B46104619464FF00002B6
:1026F800664BFEF783F802460B46D7E90401FDF75F
:102708009DFD02460B46C7E90423624BD3E900014D
:10271800D7E90023FDF748FF02460B461046194645
:1027280007F09AFC4FF000025B4BFDF73DFF0246B5
:102738000B4614461D464FF00002544BD7E90001E2
:10274800FEF75CF802460B4610461946514BD3E992
:102758000023FDF729FF02460B461046194607F0ED
:102768007BFC4FF000024D4BFDF71EFF02460B4667
:1027780020462946FDF762FD02460B4610461946DB
:1027880002460B46FDF75AFD02460B46104619460F
:102798004FF000023D4BFEF731F802460B46D7E9F1
:1027A8000401FDF74BFD02460B46C7E904234FF031
:1027B80000023B4BD7E90001FEF720F802460B4622
:1027C80010461946334BD3E90023FDF7EDFE0246C8
:1027D8000B461046194607F03FFC4FF00002314BFC
:1027E800FDF7E2FE02460B4614461D46294BD3E987
:1027F8000001D7E90023FDF7D7FE02460B46104635
:1028080019464FF00002284BFDF7F8FF02460B4629
:102818001046194607F020FC4FF00002234BFDF745
:10282800C3FE02460B4620462946FDF707FD024631
:102838000B461046194602460B46FDF7FFFC0246BA
:102848000B46104619464FF00002104BFDF7D6FF15
:1028580002460B46D7E90401FDF7F0FC02460B4699
:10286800C7E90423D7E90423104619461837BD469B
:10287800BDE8B083AFF300809A9999999999C93FB7
:102888009A9999999999B93F0000594000000840D0
:1028980000001840000000200000344000004440C0
:1028A800000028400000644000003E4000007440E2
:1028B8002DE9B04386B000AFC7E90201C7E900239C
:1028C8004FF000024FF00003C7E90423BAA3D3E98D
:1028D8000023D7E90201FDF7B1FC02460B469046FA
:1028E8009946D7E9000102460B46FDF7A7FC0246C8
:1028F8000B4640464946FDF7A1FC02460B4690466A
:102908009946AFA3D3E90023D7E90201FDF74CFEAE
:1029180002460B4610461946D7E90223FDF744FE46
:1029280002460B4640464946FDF788FC02460B46E0
:1029380090469946A2A3D3E90023D7E90201FDF7FF
:1029480033FE02460B4610461946D7E90023FDF729
:102958002BFE02460B4640464946FDF76FFC0246F1
:102968000B4690469946BC68FB6823F00045204614
:10297800294607F0B7FB92A3D3E90023FDF714FE1D
:1029880002460B4640464946FDF758FC02460B46B0
:10299800C7E904234FF000028D4BD7E90201FDF788
:1029A80003FE02460B46104619468A4BD3E900231C
:1029B800FDF7FAFD02460B461046194607F04CFB98
:1029C8004FF00002844BFDF7EFFD02460B4614461C
:1029D8001D46D7E9020102460B46FDF72FFC0246C9
:1029E8000B46104619467B4BD3E90023FDF7DCFD67
:1029F80002460B461046194607F02EFB4FF0000220
:102A0800754BFDF7D1FD02460B4620462946FDF7DA
:102A180015FC02460B461046194602460B46FDF7C2
:102A28000DFC02460B46104619464FF000026B4B50
:102A3800FDF7E4FE02460B46D7E90401FDF7FEFB6D
:102A480002460B46C7E90423624BD3E90001D7E9E4
:102A58000223FDF7A9FD02460B461046194607F06A
:102A6800FBFA4FF000025C4BFDF79EFD02460B4659
:102A780014461D464FF00002584BD7E90201FDF7F6
:102A8800BDFE02460B4610461946524BD3E90023B9
:102A9800FDF78AFD02460B461046194607F0DCFA98
:102AA8004FF000024E4BFDF77FFD02460B462046D5
:102AB8002946FDF7C3FB02460B4610461946024657
:102AC8000B46FDF7BBFB02460B46104619464FF076
:102AD8000002424BFDF792FE02460B46D7E904017D
:102AE800FDF7ACFB02460B46C7E904234FF0000292
:102AF8003C4BD7E90201FDF781FE02460B46104622
:102B08001946344BD3E90023FDF74EFD02460B4628
:102B18001046194607F0A0FA2BA3D3E90023FDF7C6
:102B280043FD02460B4614461D464FF000022E4B4D
:102B3800D7E90201FDF762FE02460B461046194628
:102B4800244BD3E90023FDF72FFD02460B46104620
:102B5800194607F081FA18A3D3E90023FDF724FDED
:102B680002460B4620462946FDF768FB02460B46FF
:102B78001046194602460B46FDF760FB02460B4617
:102B8800104619464FF00002144BFDF737FE024677
:102B98000B46D7E90401FDF751FB02460B46C7E98E
:102BA8000423D7E90423104619461837BD46BDE863
:102BB800B08300BFAFF300800000000000C0724087
:102BC8009A9999999999B93F0000000000C062400C
:102BD80000001840000000200000344000000840B9
:102BE800000044400000284000003E402DE9B0436A
:102BF8008EB000AFC7E90201C7E90023D7E9002377
:102C0800D7E90201FFF764FC0346002B0BD0396DAE
:102C1800D7E90223C1E90023796DD7E90023C1E987
:102C280000230023F6E04FF000027D4BD7E90001B6
:102C3800FDF702FB02460B4614461D464FF0000204
:102C4800784BD7E90201FDF7F7FA02460B46204612
:102C58002946FFF785FCC7E90C014FF00002704BCD
:102C6800D7E90001FDF7E8FA02460B4614461D466F
:102C78004FF000026B4BD7E90201FDF7DDFA02467F
:102C88000B4620462946FFF713FEC7E90A014FF015
:102C98000002654BD7E90201FDF7B0FD02460B467D
:102CA80010461946614BD3E90023FDF77DFC024627
:102CB8000B46C7E90823D7E9080107F0CDF9C7E9AA
:102CC80006015B4BD3E90001D7E90623FDF76CFC4D
:102CD80002460B4610461946D7E90623FDF764FC61
:102CE80002460B464FF000005249FDF7A5FA02468E
:102CF8000B46C7E90623D7E9060107F0F3F9C7E948
:102D080004014FF00002484BD7E90C01FDF74CFCD9
:102D180002460B4614461D46454BD3E900234FF0A7
:102D280000004449FDF788FA02460B46104619464A
:102D3800414BD3E90023FDF737FC02460B4690468A
:102D48009946D7E90423D7E90601FDF72DFC024689
:102D58000B4640464946FDF751FD02460B461046D4
:102D68001946324BD3E90023FDF71EFC02460B46F9
:102D780020462946FDF742FD02460B46C7E90C23CB
:102D88004FF00002284BD7E90A01FDF70DFC024677
:102D98000B4614461D46284BD3E90001D7E9042306
:102DA800FDF72CFD02460B4690469946D7E90801E7
:102DB80007F010F902460B4640464946FDF7F4FB7A
:102DC80002460B4610461946184BD3E90023FDF777
:102DD800EBFB02460B4620462946FDF70FFD02464F
:102DE8000B46C7E90A23D7E90C23D7E90201FDF707
:102DF80025FA02460B46396DC1E90023D7E90A23B3
:102E0800D7E90001FDF71AFA02460B46796DC1E9C8
:102E18000023002318463837BD46BDE8B08300BFFD
:102E280000405A4000804140008066400000002079
:102E3800100000200000F03F0800002080B582B09C
:102E480000AF78604FF496620021144802F090FCBD
:102E5800134802F05BF84FF496621049104801F0ED
:102E6800D5FF7868FDF7DCF903469BB21A46796806
:102E78000B4801F05FFF4FF4FA7000F093FB09492B
:102E8800064803F020FB0346002B01D0002301E095
:102E98004FF0FF3318460837BD4680BD7004002048
:102EA800AC03002090B3000880B500AF4FF49662E1
:102EB8000021174802F05CFC164802F027F84FF48E
:102EC80096621349134801F0A1FF134B134A07CA2E
:102ED80003C31A800233120C1A700F48FDF7A0F9C9
:102EE80003469BB21A460C490A4801F023FF4FF4E7
:102EF800FA7000F057FB0A49054803F0E4FA034664
:102F0800002B01D0002301E04FF0FF33184680BDAD
:102F180070040020AC030020200200201CB400082C
:102F280028B4000880B500AF4FF496620021164817
:102F380002F01EFC154801F0E9FF4FF496621249B1
:102F4800124801F063FF124B124A07CA83E80700D0
:102F58000F48FDF765F903469BB21A460C490B4822
:102F680001F0E8FE4FF4FA7000F01CFB0A4906482D
:102F780003F0A9FA0346002B01D0002301E04FF02B
:102F8800FF33184680BD00BF70040020AC0300204A
:102F98002002002030B400083CB4000880B500AF1F
:102FA8004FF496620021174802F0E2FB164801F040
:102FB800ADFF4FF496621349134801F027FF134BF6
:102FC800134A07CA03C31A800233120C1A700F4837
:102FD800FDF726F903469BB21A460C490A4801F048
:102FE800A9FE4FF4FA7000F0DDFA0A49054803F02B
:102FF8006AFA0346002B01D0002301E04FF0FF33AB
:10300800184680BD70040020AC0300202002002078
:1030180048B4000854B4000880B500AF4FF4966275
:103028000021174802F0A4FB164801F06FFF4FF487
:1030380096621349134801F0E9FE134B134A07CA75
:1030480003C31A800233120C1A700F48FDF7E8F810
:1030580003469BB21A460C490A4801F06BFE4FF42E
:10306800FA7000F09FFA0A49054803F02CFA034663
:10307800002B01D0002301E04FF0FF33184680BD3C
:1030880070040020AC030020200200205CB400087B
:1030980068B4000880B400AF72B600BFFEE7000055
:1030A80080B584B000AF1A4B9B69194A43F00103FD
:1030B8009361174B9B6903F00103BB60BB68144B1A
:1030C800DB69134A43F08053D361114BDB6903F08A
:1030D80080537B607B68052000F054FB00220021B0
:1030E800052000F05AFB052000F073FB094B5B68D4
:1030F800FB60FB6823F0E063FB60FB6843F0007350
:10310800FB60044AFB68536000BF1037BD4680BDB2
:10311800001002400000014080B588B000AF786020
:1031280007F1100300221A605A609A60DA607B681F
:103138001B68484A934240F08880474B9B69464A3F
:1031480043F480439361444B9B6903F48043FB60E1
:10315800FB68414B9B69404A43F0040393613E4B33
:103168009B6903F00403BB60BB684FF400733B61C9
:1031780002237B610323FB6107F1100319463748DB
:1031880000F0C4FF4FF480633B6100237B610023A0
:10319800BB6107F110031946304800F0B7FF304B08
:1031A800304A1A602E4B00225A602D4B00229A603A
:1031B8002B4B8022DA602A4B00221A61284B00220E
:1031C8005A61274B00229A61254B4FF40052DA616D
:1031D800234800F019FB0346002B01D0FFF75AFFE4
:1031E8007B681F4A5A631E4A7B6853621E4B1F4AFC
:1031F8001A601D4B10225A601B4B00229A601A4B12
:103208008022DA60184B00221A61174B00225A619B
:10321800154B00229A61144B4FF48052DA61124820
:1032280000F0F2FA0346002B01D0FFF733FF7B686A
:103238000D4A1A630C4A7B6853620022002125203C
:1032480000F0ABFA252000F0C4FA00BF2037BD46D5
:1032580080BD00BF00380140001002400008014056
:103268006803002058000240240300204400024064
:1032780080B400AFFEE780B400AFFEE780B400AFD3
:10328800FEE780B400AFFEE780B400AFFEE780B48D
:1032980000AF00BFBD4680BC704780B400AF00BF20
:1032A800BD4680BC704780B400AF00BFBD4680BC3F
:1032B800704780B500AF00F059F900BF80BD80B4F9
:1032C80000AF00BFBD4680BC7047000080B500AFAE
:1032D800024800F0B1FC00BF80BD00BF24030020FD
:1032E80080B500AF024800F0A7FC00BF80BD00BF5A
:1032F8006803002080B500AF024801F063FE00BFFC
:1033080080BD00BFAC03002080B400AF0123184685
:10331800BD4680BC704780B582B000AF7860396028
:1033280002F0FCF9034616221A604FF0FF331846E4
:103338000837BD4680BD80B582B000AF78604FF0D9
:10334800FF317868FFF7E7FFFEE780B586B000AF8A
:10335800F860B9607A6000237B610AE0AFF300800F
:103368000146BB685A1CBA60CAB21A707B6901333D
:103378007B617A697B689A42F0DB7B68184618376C
:10338800BD4680BD80B586B000AFF860B9607A6090
:1033980000237B6109E0BB685A1CBA601B78184699
:1033A800AFF300807B6901337B617A697B689A425D
:1033B800F1DB7B6818461837BD4680BD80B483B002
:1033C80000AF78604FF0FF3318460C37BD4680BC1D
:1033D800704780B483B000AF786039603B684FF4C1
:1033E80000525A60002318460C37BD4680BC70470F
:1033F80080B483B000AF7860012318460C37BD460F
:1034080080BC704780B485B000AFF860B9607A605E
:10341800002318461437BD4680BC704780B586B077
:1034280000AF7860144A154BD31A7B617B693B6106
:10343800134B1B68002B02D1114B124A1A60104B18
:103448001A687B6813443A699A4207D202F066F90F
:1034580003460C221A604FF0FF3309E0084B1B6843
:10346800FB60074B1A687B681344054A1360FB68C6
:1034780018461837BD4680BD000001200004000032
:10348800140300203809002080B400AF00BFBD46F7
:1034980080BC7047002103E00B4B5B58435004315C
:1034A8000A480B4B42189A42F6D30A4A02E0002314
:1034B80042F8043B084B9A42F9D3FFF7E5FF02F0C4
:1034C80033F9FDF771FE704738BB00080000002093
:1034D800000200200002002034090020FEE700005E
:1034E80080B500AF084B1B68074A43F01003136010
:1034F800032000F047F9012000F008F8FFF7D0FD9D
:103508000023184680BD00BF0020024080B582B06D
:1035180000AF7860124B1A68124B1B7819464FF4AB
:103528007A73B3FBF1F3B2FBF3F3184600F05FF9DB
:103538000346002B01D001230EE07B680F2B0AD82D
:10354800002279684FF0FF3000F027F9064A7B68BF
:103558001360002300E0012318460837BD4680BDEC
:103568001C000020240000202000002080B400AFB0
:10357800054B1B781A46054B1B681344034A136016
:1035880000BFBD4680BC70472400002020090020F1
:1035980080B400AF024B1B681846BD4680BC70471C
:1035A8002009002080B584B000AF7860FFF7F0FFF5
:1035B800B8607B68FB60FB68B3F1FF3F05D00A4B3E
:1035C8001B781A46FB681344FB6000BFFFF7E0FF57
:1035D8000246BB68D31AFA689A42F7D800BF00BF00
:1035E8001037BD4680BD00BF2400002080B485B0E0
:1035F80000AF78607B6803F00703FB600C4BDB6867
:10360800BB60BA684FF6FF031340BB60FB681A0241
:10361800BB68134343F0BF6343F40033BB60044A01
:10362800BB68D36000BF1437BD4680BC704700BF7D
:1036380000ED00E080B400AF044BDB681B0A03F028
:1036480007031846BD4680BC704700BF00ED00E088
:1036580080B483B000AF0346FB7197F90730002BA5
:103668000BDBFB7903F01F02064997F907305B096A
:10367800012000FA02F241F8232000BF0C37BD46B2
:1036880080BC704700E100E080B483B000AF03461F
:103698003960FB7197F90730002B0ADB3B68DAB217
:1036A8000C4997F907301201D2B20B4483F8002372
:1036B8000AE03B68DAB20849FB7903F00F03043BE0
:1036C8001201D2B20B441A7600BF0C37BD4680BC3B
:1036D800704700BF00E100E000ED00E080B489B071
:1036E80000AFF860B9607A60FB6803F00703FB611C
:1036F800FB69C3F10703042B28BF0423BB61FB69E3
:103708000433062B02D9FB69033B00E000237B61ED
:103718004FF0FF32BB6902FA03F3DA43BB681A4081
:103728007B699A404FF0FF317B6901FA03F3D94373
:103738007B680B40134318462437BD4680BC70474E
:1037480080B582B000AF78607B68013BB3F1807FC1
:1037580001D301230FE00A4A7B68013B53600F2124
:103768004FF0FF30FFF790FF054B00229A60044BA3
:1037780007221A60002318460837BD4680BD00BFDF
:1037880010E000E080B582B000AF78607868FFF79D
:103798002DFF00BF0837BD4680BD80B586B000AF9D
:1037A8000346B9607A60FB7300237B61FFF742FF31
:1037B80078617A68B9687869FFF790FF024697F9E7
:1037C8000F3011461846FFF75FFF00BF1837BD4698
:1037D80080BD80B582B000AF0346FB7197F9073012
:1037E8001846FFF735FF00BF0837BD4680BD80B5D6
:1037F80082B000AF78607868FFF7A2FF03461846EA
:103808000837BD4680BD000080B485B000AF786041
:103818000023FB607B68002B01D1012359E07B6802
:103828001B681A462D4B9A420FD87B681B681A46AC
:103838002B4B13442B4AA2FB03231B099A007B68DA
:103848001A647B68284ADA630EE07B681B681A46AC
:10385800264B1344234AA2FB03231B099A007B68C7
:103868001A647B68224ADA637B68022283F8212083
:103878007B681B681B68FB60FB6823F47F5323F09D
:103888003003FB607B685A687B689B681A437B68D7
:10389800DB681A437B681B691A437B685B691A43B8
:1038A8007B689B691A437B68DB691343FA68134397
:1038B800FB607B681B68FA681A607B6800229A6361
:1038C8007B68012283F821207B68002283F820206E
:1038D800002318461437BD4680BC704707040240D1
:1038E800F8FFFDBFCDCCCCCC00000240F8FBFDBFFB
:1038F8000004024080B586B000AFF860B9607A6015
:103908003B600023FB75FB6893F82030012B01D145
:1039180002234AE0FB68012283F82020FB6893F821
:103928002130012B3AD1FB68022283F82120FB6861
:1039380000229A63FB681B681A68FB681B6822F000
:1039480001021A603B687A68B968F86800F0B0FB51
:10395800FB68DB6A002B08D0FB681B681A68FB68E9
:103968001B6842F00E021A600FE0FB681B681A68B9
:10397800FB681B6822F004021A60FB681B681A685F
:10398800FB681B6842F00A021A60FB681B681A6829
:10399800FB681B6842F001021A6005E0FB68002220
:1039A80083F820200223FB75FB7D18461837BD4697
:1039B80080BD80B485B000AF78600023FB737B685E
:1039C80093F82130022B08D07B6804229A637B6825
:1039D800002283F82020012320E07B681B681A68F6
:1039E8007B681B6822F00E021A607B681B681A68E5
:1039F8007B681B6822F001021A607B681A6C7B687E
:103A0800DB6B012101FA02F25A607B68012283F81C
:103A180021207B68002283F82020FB7B184614377E
:103A2800BD4680BC7047000080B584B000AF7860A8
:103A38000023FB737B6893F82130022B05D07B6849
:103A480004229A630123FB73D6E07B681B681A681B
:103A58007B681B6822F00E021A607B681B681A6874
:103A68007B681B6822F001021A607B681B681A4693
:103A7800644B9A4258D97B681B68634A93424FD07B
:103A88007B681B68614A934248D07B681B68604A20
:103A9800934240D07B681B685E4A934238D07B686B
:103AA8001B685D4A934230D07B681B685B4A93422F
:103AB80028D07B681B68534A934220D07B681B68D8
:103AC800574A934219D07B681B68564A934212D0D2
:103AD8007B681B68544A93420AD07B681B68534A28
:103AE800934202D14FF480531BE04FF4803318E027
:103AF8004FF4807315E0102313E0012311E04FF019
:103B080080730EE04FF480130BE04FF4803308E02D
:103B18004FF4805305E04FF4807302E0102300E077
:103B28000123434A536057E07B681B68364A934237
:103B38004FD07B681B68354A934248D07B681B6826
:103B4800334A934240D07B681B68324A934238D04C
:103B58007B681B68304A934230D07B681B682F4AC9
:103B6800934228D07B681B68264A934220D07B6802
:103B78001B682B4A934219D07B681B68294A9342D9
:103B880012D07B681B68284A93420AD07B681B685E
:103B9800264A934202D14FF480531BE04FF48033FE
:103BA80018E04FF4807315E0102313E0012311E0AF
:103BB8004FF080730EE04FF480130BE04FF4803326
:103BC80008E04FF4805305E04FF4807302E01023BF
:103BD80000E00123174A53607B68012283F8212003
:103BE8007B68002283F820207B685B6B002B03D066
:103BF8007B685B6B78689847FB7B18461037BD4637
:103C080080BD00BF80000240080002401C00024046
:103C18003000024044000240580002406C0002405C
:103C2800080402401C0402403004024044040240DC
:103C3800000402400000024080B584B000AF786004
:103C48007B68DB6B1B68FB607B681B681B68BB6061
:103C58007B681B6C04229A40FB681340002B00F021
:103C6800D680BB6803F00403002B00F0D0807B688B
:103C78001B681B6803F02003002B07D17B681B68B7
:103C88001A687B681B6822F004021A607B681B684C
:103C98001A469B4B9A4258D97B681B68994A9342AB
:103CA8004FD07B681B68984A934248D07B681B6852
:103CB800964A934240D07B681B68954A934238D015
:103CC8007B681B68934A934230D07B681B68924A92
:103CD800934228D07B681B68894A934220D07B682E
:103CE8001B688E4A934219D07B681B688C4A9342A2
:103CF80012D07B681B688B4A93420AD07B681B688A
:103D0800894A934202D14FF480431BE04FF4802349
:103D180018E04FF4806315E0402313E0042311E01A
:103D28004FF080630EE04FF480030BE04FF48023E4
:103D380008E04FF4804305E04FF4806302E040233D
:103D480000E00423794A536057E07B681B686D4A9A
:103D580093424FD07B681B686B4A934248D07B687C
:103D68001B686A4A934240D07B681B68684A934242
:103D780038D07B681B68674A934230D07B681B68E1
:103D8800654A934228D07B681B685D4A934220D0DD
:103D98007B681B68614A934219D07B681B68604A3C
:103DA800934212D07B681B685E4A93420AD07B68B4
:103DB8001B685D4A934202D14FF480431BE04FF4E5
:103DC800802318E04FF4806315E0402313E00423B8
:103DD80011E04FF080630EE04FF480030BE04FF4E6
:103DE800802308E04FF4804305E04FF4806302E04D
:103DF800402300E004234E4A53607B68DB6A002BB3
:103E080000F036817B68DB6A7868984730E17B6828
:103E18001B6C02229A40FB681340002B00F0F880CC
:103E2800BB6803F00203002B00F0F2807B681B687C
:103E38001B6803F02003002B0BD17B681B681A68F2
:103E48007B681B6822F00A021A607B68012283F8EB
:103E580021207B681B681A46294B9A4273D97B68D4
:103E68001B68284A93426AD07B681B68264A93429B
:103E780063D07B681B68254A93425BD07B681B68CC
:103E8800234A934238D07B681B68224A934230D039
:103E98007B681B68204A934228D07B681B68184AB5
:103EA800934220D07B681B681C4A934219D07B68D8
:103EB8001B681B4A934212D07B681B68194A9342BD
:103EC8000AD07B681B68184A934202D14FF400530A
:103ED80036E04FF4003333E04FF4007330E0202332
:103EE8002EE002232CE04FF0007329E04FF400137A
:103EF80026E04FF4003323E04FF4005320E000BFE6
:103F080080000240080002401C00024030000240CD
:103F180044000240580002406C000240080402407D
:103F28001C040240300402404404024000040240E1
:103F3800000002404FF4007302E0202300E0022357
:103F48004E4A536057E07B681B684D4A93424FD0F6
:103F58007B681B684B4A934248D07B681B684A4A77
:103F6800934240D07B681B68484A934238D07B68AC
:103F78001B68474A934230D07B681B68454A934286
:103F880028D07B681B68444A934220D07B681B6812
:103F9800424A934219D07B681B68414A934212D027
:103FA8007B681B683F4A93420AD07B681B683E4A7D
:103FB800934202D14FF400531BE04FF4003318E052
:103FC8004FF4007315E0202313E0022311E04FF0B3
:103FD80000730EE04FF400130BE04FF4003308E0D9
:103FE8004FF4005305E04FF4007302E0202300E093
:103FF80002232E4A53607B68002283F820207B68C6
:104008009B6A002B34D07B689B6A786898472FE0BE
:104018007B681B6C08229A40FB681340002B28D051
:10402800BB6803F00803002B23D07B681B681A6861
:104038007B681B6822F00E021A607B681A6C7B682A
:10404800DB6B012101FA02F25A607B6801229A6354
:104058007B68012283F821207B68002283F82020D6
:104068007B681B6B002B04D07B681B6B78689847B8
:1040780000BF00BF1037BD4680BD00BF000402402E
:10408800080002401C000240300002404400024088
:10409800580002406C0002408000024008040240C0
:1040A8001C04024030040240440402400000024064
:1040B80080B485B000AFF860B9607A603B60FB6897
:1040C8001A6CFB68DB6B012101FA02F25A60FB688B
:1040D8001B683A685A60FB685B68102B08D1FB685C
:1040E8001B687A689A60FB681B68BA68DA6007E040
:1040F800FB681B68BA689A60FB681B687A68DA60B4
:1041080000BF1437BD4680BC7047000080B48BB038
:1041180000AF7860396000237B6200233B6279E15D
:1041280001227B6A02FA03F3FB613B681B68FA69A8
:104138001340BB61BA69FB699A4240F068813B68E9
:104148005B68A04A93425ED09E4A934275D89E4AC5
:10415800934258D09C4A93426FD89C4A934252D07B
:104168009A4A934269D89A4A93424CD0984A9342C1
:1041780063D8984A934246D0964A93425DD8122B08
:104188002AD8122B59D801A252F823F00F4200085E
:10419800E9410008FB4100083D420008434200088D
:1041A80043420008434200084342000843420008D3
:1041B80043420008434200084342000843420008C3
:1041C80043420008434200084342000843420008B3
:1041D800F1410008054200087F4A934213D02CE0C1
:1041E8003B68DB683B6229E03B68DB6804333B6281
:1041F80024E03B68DB6808333B621FE03B68DB6810
:104208000C333B621AE03B689B68002B02D1042305
:104218003B6213E03B689B68012B05D108233B6296
:104228007B68FA691A6109E008233B627B68FA69CE
:104238005A6103E000233B6200E000BFBB69FF2B2B
:1042480001D87B6801E07B6804337B61BB69FF2B85
:1042580002D87B6A9B0002E07B6A083B9B003B61BB
:104268007B691A680F213B6901FA03F3DB431A40A3
:10427800396A3B6901FA03F31A437B691A603B68A0
:104288005B6803F08053002B00F0C180534B9B699F
:10429800524A43F001039361504B9B6903F00103B9
:1042A800BB60BB684E4A7B6A9B08023352F82330D6
:1042B800FB607B6A03F003039B000F2202FA03F3FF
:1042C800DB43FA681340FB607B68464A93421FD081
:1042D8007B68454A934219D07B68444A934213D07D
:1042E8007B68434A93420DD07B68424A934207D089
:1042F8007B68414A934201D105230AE0062308E07E
:10430800042306E0032304E0022302E0012300E083
:1043180000237A6A02F0030292009340FA6813437A
:10432800FB602F497B6A9B080233FA6841F8232017
:104338003B685B6803F48033002B06D02F4B1A6868
:104348002E49BB6913430B6006E02C4B1A68BB6906
:10435800DB432A4913400B603B685B6803F4003376
:10436800002B06D0254B5A682449BB6913434B6080
:1043780006E0224B5A68BB69DB43204913404B6077
:104388003B685B6803F48013002B06D01B4B9A68CC
:104398001A49BB6913438B6006E0184B9A68BB69DE
:1043A800DB43164913408B603B685B6803F40013DA
:1043B800002B25D0114BDA681049BB691343CB6039
:1043C80025E000BF0000321000003110000022106C
:1043D800000021100000121000001110001002400F
:1043E8000000014000080140000C0140001001409D
:1043F8000014014000180140001C01400004014065
:104408000B4BDA68BB69DB4309491340CB607B6A15
:1044180001337B623B681A687B6A22FA03F3002B3C
:104428007FF47EAE00BF00BF2C37BD4680BC70470E
:104438000004014080B483B000AF78600B467B80F5
:1044480013467B707B78002B03D07A887B681A61CF
:1044580003E07B881A047B681A6100BF0C37BD46ED
:1044680080BC704780B586B000AF78607B68002B51
:1044780001D101236CE27B681B6803F00103002B68
:1044880000F08780924B5B6803F00C03042B0CD080
:104498008F4B5B6803F00C03082B12D18C4B5B68C5
:1044A80003F48033B3F5803F0BD1894B1B6803F4C9
:1044B8000033002B6CD07B685B68002B68D101232C
:1044C80046E27B685B68B3F5803F06D1804B1B688A
:1044D8007F4A43F4803313602EE07B685B68002BCF
:1044E8000CD17B4B1B687A4A23F480331360784BDA
:1044F8001B68774A23F4802313601DE07B685B68A0
:10450800B3F5A02F0CD1724B1B68714A43F480237A
:1045180013606F4B1B686E4A43F4803313600BE0E3
:104528006B4B1B686A4A23F480331360684B1B6823
:10453800674A23F4802313607B685B68002B13D0E1
:10454800FFF726F8386108E0FFF722F802463B69D2
:10455800D31A642B01D90323FAE15D4B1B6803F4DA
:104568000033002BF0D014E0FFF712F8386108E0B0
:10457800FFF70EF802463B69D31A642B01D90323CF
:10458800E6E1534B1B6803F40033002BF0D100E045
:1045980000BF7B681B6803F00203002B63D04C4B01
:1045A8005B6803F00C03002B0BD0494B5B6803F0EE
:1045B8000C03082B1CD1464B5B6803F48033002B9B
:1045C80016D1434B1B6803F00203002B05D07B6810
:1045D8001B69012B01D00123BAE13D4B1B6823F075
:1045E800F8027B685B69DB00394913430B603AE0EA
:1045F8007B681B69002B20D0364B01221A60FEF71E
:10460800C7FF386108E0FEF7C3FF02463B69D31ACB
:10461800022B01D903239BE12D4B1B6803F00203F6
:10462800002BF0D02A4B1B6823F0F8027B685B69EB
:10463800DB00274913430B6015E0264B00221A6064
:10464800FEF7A6FF386108E0FEF7A2FF02463B69C5
:10465800D31A022B01D903237AE11D4B1B6803F0FF
:104668000203002BF0D17B681B6803F00803002BC2
:104678003AD07B689B69002B19D0174B01221A602E
:10468800FEF786FF386108E0FEF782FF02463B69C5
:10469800D31A022B01D903235AE10D4B5B6A03F0AD
:1046A8000203002BF0D0012000F0D8FA1CE00A4BDE
:1046B80000221A60FEF76CFF38610FE0FEF768FF12
:1046C80002463B69D31A022B08D9032340E100BFF5
:1046D8000010024000004242800442429E4B5B6A46
:1046E80003F00203002BE9D17B681B6803F0040385
:1046F800002B00F0A6800023FB75974BDB6903F0C5
:104708008053002B0DD1944BDB69934A43F08053BF
:10471800D361914BDB6903F08053BB60BB68012315
:10472800FB758E4B1B6803F48073002B18D18B4BE1
:104738001B688A4A43F480731360FEF729FF3861C7
:1047480008E0FEF725FF02463B69D31A642B01D91E
:104758000323FDE0814B1B6803F48073002BF0D02A
:104768007B68DB68012B06D17B4B1B6A7A4A43F0D6
:10477800010313622DE07B68DB68002B0CD1764BBC
:104788001B6A754A23F001031362734B1B6A724A52
:1047980023F0040313621CE07B68DB68052B0CD153
:1047A8006D4B1B6A6C4A43F0040313626A4B1B6A25
:1047B800694A43F0010313620BE0674B1B6A664AC0
:1047C80023F001031362644B1B6A634A23F004035A
:1047D80013627B68DB68002B15D0FEF7D9FE3861C1
:1047E8000AE0FEF7D5FE02463B69D31A41F2883249
:1047F800934201D90323ABE0574B1B6A03F0020332
:10480800002BEED014E0FEF7C3FE38610AE0FEF795
:10481800BFFE02463B69D31A41F28832934201D95E
:10482800032395E04C4B1B6A03F00203002BEED1E7
:10483800FB7D012B05D1484BDB69474A23F08053A8
:10484800D3617B68DB69002B00F08180424B5B6899
:1048580003F00C03082B61D07B68DB69022B46D17F
:104868003F4B00221A60FEF793FE386108E0FEF71E
:104878008FFE02463B69D31A022B01D9032367E056
:10488800354B1B6803F00073002BF0D17B681B6A63
:10489800B3F5803F08D1304B5B6823F400327B6866
:1048A8009B682D4913434B602B4B5B6823F47412B0
:1048B8007B68196A7B685B6A0B43274913434B6023
:1048C800274B01221A60FEF763FE386108E0FEF705
:1048D8005FFE02463B69D31A022B01D9032337E056
:1048E8001D4B1B6803F00073002BF0D02FE01C4B0E
:1048F80000221A60FEF74CFE386108E0FEF748FE19
:1049080002463B69D31A022B01D9032320E0124B3C
:104918001B6803F00073002BF0D118E07B68DB699B
:10492800012B01D1012313E00B4B5B68FB60FB6893
:1049380003F480327B681B6A9A4206D1FB6803F451
:1049480070127B685B6A9A4201D0012300E0002361
:1049580018461837BD4680BD001002400070004060
:104968006000424280B584B000AF786039607B68EF
:10497800002B01D10123D0E06A4B1B6803F0070329
:104988003A689A4210D9674B1B6823F007026549B9
:104998003B6813430B60634B1B6803F007033A68DB
:1049A8009A4201D00123B8E07B681B6803F0020338
:1049B800002B20D07B681B6803F00403002B05D074
:1049C800594B5B68584A43F4E06353607B681B6843
:1049D80003F00803002B05D0534B5B68524A43F49D
:1049E80060535360504B5B6823F0F0027B689B6810
:1049F8004D4913434B607B681B6803F00103002B90
:104A080040D07B685B68012B07D1474B1B6803F4D8
:104A18000033002B15D101237FE07B685B68022BF4
:104A280007D1414B1B6803F00073002B09D1012308
:104A380073E03D4B1B6803F00203002B01D10123F7
:104A48006BE0394B5B6823F003027B685B6836498F
:104A580013434B60FEF79CFDF8600AE0FEF798FDF3
:104A68000246FB68D31A41F28832934201D90323E4
:104A780053E02D4B5B6803F00C027B685B689B007E
:104A88009A42EBD1274B1B6803F007033A689A4216
:104A980010D2244B1B6823F0070222493B681343BA
:104AA8000B60204B1B6803F007033A689A4201D059
:104AB800012332E07B681B6803F00403002B08D055
:104AC800194B5B6823F4E0627B68DB681649134383
:104AD8004B607B681B6803F00803002B09D0124B5E
:104AE8005B6823F460527B681B69DB000E49134343
:104AF8004B6000F021F802460B4B5B681B0903F082
:104B08000F030A49CB5C22FA03F3094A1360094BE5
:104B18001B681846FEF7FAFC002318461037BD46F6
:104B280080BD00BF002002400010024084B400088D
:104B38001C0000202000002090B48AB000AF2A4B4F
:104B48003C1D0FCB84E80F0040F201233B8000237B
:104B5800FB610023BB6100237B6200237B61002390
:104B68003B62224B5B68FB61FB6903F00C03042B7F
:104B780002D0082B03D02DE01D4B3B622DE0FB69D2
:104B88009B0C03F00F0307F12802134413F8243C8D
:104B98007B61FB6903F48033002B13D0134B5B68F4
:104BA8005B0C03F0010307F12802134413F8283CB7
:104BB800BB617B690E4A02FB03F2BB69B2FBF3F3EC
:104BC8007B6204E07B690B4A02FB03F37B627B6A2E
:104BD8003B6202E0064B3B6200BF3B6A184628373F
:104BE800BD4690BC704700BF74B400080010024076
:104BF80000127A0000093D0080B400AF024B1B6828
:104C08001846BD4680BC70471C00002080B500AF28
:104C1800FFF7F2FF0246054B5B681B0A03F0070328
:104C28000349CB5C22FA03F3184680BD001002400A
:104C380094B4000880B500AFFFF7DEFF0246054BCD
:104C48005B68DB0A03F007030349CB5C22FA03F332
:104C5800184680BD0010024094B4000880B485B0A6
:104C680000AF78600A4B1B680A4AA2FB03235B0A61
:104C78007A6802FB03F3FB6000BFFB685A1EFA6008
:104C8800002BF9D100BF00BF1437BD4680BC704768
:104C98001C000020D34D621080B582B000AF786050
:104CA8007B68002B01D101233FE07B6893F8393002
:104CB800DBB2002B06D17B68002283F838207868A5
:104CC800FEF72AFA7B68242283F839207B681B6860
:104CD800DA687B681B6822F40052DA60786800F0B2
:104CE8008FFC7B681B681A697B681B6822F49042FA
:104CF8001A617B681B685A697B681B6822F02A0264
:104D08005A617B681B68DA687B681B6842F400524A
:104D1800DA607B680022DA637B68202283F8392016
:104D28007B68202283F83A20002318460837BD46BE
:104D380080BD000080B586B000AFF860B96013464A
:104D4800FB80FB6893F83930DBB2202B53D1BB686A
:104D5800002B02D0FB88002B01D101234CE0FB681B
:104D680093F83830012B01D1022345E0FB6801227A
:104D780083F83820BA68FB681A62FB68FA889A8454
:104D8800FB68FA88DA84FB680022DA63FB68212270
:104D980083F83920FB681B6B194A9A62FB681B6B06
:104DA800184ADA62FB681B6B174A1A63FB681B6BAD
:104DB80000225A6307F108037B61FB68186B7B6963
:104DC8001968FB681B6804331A46FB88FEF792FDD6
:104DD800FB681B686FF040021A60FB68002283F8CA
:104DE8003820FB681B685A69FB681B6842F0800220
:104DF8005A61002300E0022318461837BD4680BDDB
:104E080027520008795200081953000880B586B067
:104E180000AFF860B9601346FB80FB6893F83A303E
:104E2800DBB2202B66D1BB68002B02D0FB88002B9D
:104E380001D101235FE0FB6893F83830012B01D1E1
:104E4800022358E0FB68012283F83820BA68FB681F
:104E58009A62FB68FA889A85FB680022DA63FB6825
:104E6800222283F83A20FB685B6B254A9A62FB682A
:104E78005B6B244ADA62FB685B6B234A1A63FB6844
:104E88005B6B00225A6307F108037B61FB68586B70
:104E9800FB681B68043319467B691A68FB88FEF7B0
:104EA80029FD00233B61FB681B681B683B61FB68AD
:104EB8001B685B683B613B69FB68002283F838200C
:104EC800FB681B68DA68FB681B6842F48072DA606A
:104ED800FB681B685A69FB681B6842F001025A614B
:104EE800FB681B685A69FB681B6842F040025A61FC
:104EF800002300E0022318461837BD4680BD00BFD6
:104F080095520008FD5200081953000880B584B076
:104F180000AF78600023FB607B681B685B6903F067
:104F28008003002B14BF01230023DBB2FB607B68E6
:104F380093F83930DBB2212B16D1FB68002B13D044
:104F48007B681B685A697B681B6822F080025A617B
:104F58007B681B6B002B04D07B681B6B1846FEF725
:104F680028FD786800F01EFA7B681B685B6903F00F
:104F78004003002B14BF01230023DBB2FB607B68D6
:104F880093F83A30DBB2222B16D1FB68002B13D0F2
:104F98007B681B685A697B681B6822F040025A616B
:104FA8007B685B6B002B04D07B685B6B1846FEF755
:104FB80000FD786800F00BFA002318461037BD464C
:104FC80080BD000080B588B000AF78607B681B6842
:104FD8001B68FB617B681B68DB68BB617B681B68BF
:104FE8005B697B6100233B610023FB60FB6903F085
:104FF8000F033B613B69002B0DD1FB6903F02003D4
:10500800002B08D0BB6903F02003002B03D078687D
:1050180000F075FAD0E03B69002B00F0B0807B69A6
:1050280003F00103002B05D1BB6903F49073002B37
:1050380000F0A580FB6903F00103002B0AD0BB69CF
:1050480003F48073002B05D07B68DB6B43F001020F
:105058007B68DA63FB6903F00403002B0AD07B69E1
:1050680003F00103002B05D07B68DB6B43F00202E1
:105078007B68DA63FB6903F00203002B0AD07B69C3
:1050880003F00103002B05D07B68DB6B43F00402BF
:105098007B68DA63FB6903F00803002B0FD0BB6958
:1050A80003F02003002B04D17B6903F00103002BDC
:1050B80005D07B68DB6B43F008027B68DA637B68AA
:1050C800DB6B002B77D0FB6903F02003002B07D0A4
:1050D800BB6903F02003002B02D0786800F00FFAB8
:1050E8007B681B685B6903F04003002B14BF012336
:1050F8000023DBB2FB607B68DB6B03F00803002B4B
:1051080002D1FB68002B31D0786800F060F97B6829
:105118001B685B6903F04003002B23D07B681B6886
:105128005A697B681B6822F040025A617B685B6B96
:10513800002B13D07B685B6B214A5A637B685B6BDF
:105148001846FEF771FC0346002B16D07B685B6B94
:105158005B6B7A68526B104698470EE0786800F0EF
:1051680055F80AE0786800F051F806E0786800F031
:105178004DF87B680022DA631DE000BF1BE0FB6985
:1051880003F08003002B08D0BB6903F08003002BD9
:1051980003D0786800F04CF90EE0FB6903F0400397
:1051A800002B09D0BB6903F04003002B04D07868BA
:1051B80000F08DF900E000BF2037BD4680BD00BF7C
:1051C8001154000880B483B000AF786000BF0C377A
:1051D800BD4680BC704780B483B000AF786000BF24
:1051E8000C37BD4680BC704780B483B000AF786090
:1051F80000BF0C37BD4680BC704780B483B000AF99
:10520800786000BF0C37BD4680BC704780B483B05F
:1052180000AF786000BF0C37BD4680BC704780B5D2
:1052280084B000AF78607B685B6AFB607B681B6852
:105238001B6803F02003002B13D1FB680022DA84DB
:10524800FB681B685A69FB681B6822F080025A6178
:10525800FB681B68DA68FB681B6842F04002DA608A
:1052680002E0F868FFF7AEFF00BF1037BD4680BD0B
:1052780080B584B000AF78607B685B6AFB60F868D3
:10528800FFF7A9FF00BF1037BD4680BD80B584B0C9
:1052980000AF78607B685B6AFB607B681B681B6893
:1052A80003F02003002B1ED1FB680022DA85FB687F
:1052B8001B68DA68FB681B6822F48072DA60FB6896
:1052C8001B685A69FB681B6822F001025A61FB6877
:1052D8001B685A69FB681B6822F040025A61FB6828
:1052E800202283F83A20F868FFF77EFF00BF1037C6
:1052F800BD4680BD80B584B000AF78607B685B6ACE
:10530800FB60F868FFF779FF00BF1037BD4680BD26
:1053180080B584B000AF78600023FB607B685B6A6F
:10532800BB60BB681B685B6903F08003002B14BF7C
:1053380001230023DBB2FB60BB6893F83930DBB292
:10534800212B08D1FB68002B05D0BB680022DA842A
:10535800B86800F027F8BB681B685B6903F0400376
:10536800002B14BF01230023DBB2FB60BB6893F85A
:105378003A30DBB2222B08D1FB68002B05D0BB6882
:105388000022DA85B86800F022F8BB68DB6B43F0CE
:105398001002BB68DA63B868FFF738FF00BF103740
:1053A800BD4680BD80B483B000AF78607B681B6861
:1053B800DA687B681B6822F0C002DA607B6820220A
:1053C80083F8392000BF0C37BD4680BC704780B4D5
:1053D80083B000AF78607B681B68DA687B681B68FD
:1053E80022F49072DA607B681B685A697B681B68D4
:1053F80022F001025A617B68202283F83A2000BF1C
:105408000C37BD4680BC704780B584B000AF78606B
:105418007B685B6AFB60FB680022DA85FB68002218
:10542800DA84F868FFF7F2FE00BF1037BD4680BD8A
:1054380080B485B000AF78607B6893F83930DBB210
:10544800212B3ED17B689B68B3F5805F14D17B68C4
:105458001B69002B10D17B681B6AFB60FB681B88EB
:105468001A467B681B68C2F308025A607B681B6A8D
:105478009A1C7B681A6208E07B681B6A591C7A6868
:1054880011621A787B681B685A607B68DB8C9BB258
:10549800013B9BB27A681946D184002B0FD17B68F7
:1054A8001B68DA687B681B6822F08002DA607B6818
:1054B8001B68DA687B681B6842F04002DA600023E8
:1054C80000E0022318461437BD4680BC704780B5FB
:1054D80082B000AF78607B681B68DA687B681B68FD
:1054E80022F04002DA607B68202283F8392078684D
:1054F800FFF768FE002318460837BD4680BD80B513
:1055080084B000AF78607B6893F83A30DBB2222B26
:1055180070D17B689B68B3F5805F17D17B681B6986
:10552800002B13D10023FB607B689B6ABB607B6800
:105538001B685B689BB2C3F308039AB2BB681A8006
:105548007B689B6A9A1C7B689A6226E07B689B6AE8
:10555800FB600023BB607B689B68B3F5805F07D066
:105568007B689B68002B0AD17B681B69002B06D1DE
:105578007B681B685B68DAB2FB681A7008E07B68B6
:105588001B685B68DBB203F07F03DAB2FB681A7052
:105598007B689B6A5A1C7B689A627B68DB8D9BB22E
:1055A800013B9BB27A681946D185002B20D17B68D4
:1055B8001B68DA687B681B6822F02002DA607B6867
:1055C8001B68DA687B681B6822F48072DA607B6883
:1055D8001B685A697B681B6822F001025A617B6864
:1055E800202283F83A207868FFF7FEFD002302E0C6
:1055F800002300E0022318461037BD4680BD000096
:1056080080B584B000AF78607B681B681B6923F4A1
:1056180040517B68DA687B681B680A431A617B68BB
:105628009A687B681B691A437B685B691343BB6094
:105638007B681B68DB6823F4B05323F00C037A689B
:105648001268B9680B43D3607B681B685B6923F4F5
:1056580040717B689A697B681B680A435A617B685A
:105668001B682C4A934203D1FFF7E4FAF86002E082
:10567800FFF7CCFAF860FA6813469B0013449A00C7
:105688001A447B685B689B00B2FBF3F3224AA2FBD7
:1056980003235B091901FA6813469B0013449A0017
:1056A8001A447B685B689B00B2FBF3F21A4BA3FBBE
:1056B80002035B09642000FB03F3D31A1B01323396
:1056C800154AA2FB03235B0903F0F0031944FA68A7
:1056D80013469B0013449A001A447B685B689B003E
:1056E800B2FBF3F20C4BA3FB02035B09642000FB43
:1056F80003F3D31A1B013233074AA2FB03235B09C6
:1057080003F00F027B681B680A449A6000BF1037D9
:10571800BD4680BD003801401F85EB51014B18681C
:10572800704700BF2800002070B500260C4D0D4CB6
:10573800641BA410A64209D105F068FD00260A4D95
:105748000A4C641BA410A64205D170BD55F8043B51
:1057580098470136EEE755F8043B98470136F2E7DB
:1057680030BB000830BB000830BB000834BB000861
:1057780003460244934200D1704703F8011BF9E73E
:10578800002B2DE9F0471F46BBBF03F100431F461E
:1057980000232D2388B01446129A109D1370149B71
:1057A800DDF84CA023F02008B8F1460F05D0B8F179
:1057B800450F00D10135022300E0032307AA049214
:1057C80006AACDE902A2CDE9003522463B4601F002
:1057D800C3FDB8F1470F064602D1119BDB0722D55E
:1057E800B8F1460F06EB050910D13378302B0AD1F2
:1057F8000022002320463946FBF73EF918B9C5F1C7
:105808000105CAF80050DAF8003099440022002354
:1058180020463946FBF730F908B1CDF81C90302204
:10582800079B4B4507D33046079B159A9B1B136074
:1058380008B0BDE8F087591C07911A70F0E70346D5
:10584800F7B5002903F8022BB6BF2D222B224942B7
:10585800092942702BDD0DF10704A4460A2791FBA4
:10586800F7F60A46A64607FB1615632A05F1300522
:10587800314604F1FF340EF8015CF0DC3031AEF152
:10588800020504F8011C2946441C61450AD30DF1A0
:105898000902A2EB0E02654588BF00221344181ABC
:1058A80003B0F0BD11F8012B04F8012FEDE7302308
:1058B80030318370C170031DF1E700002DE9F04F0E
:1058C80091B00C46DDF8688016461F46054602F082
:1058D80097FE036818460993FAF7A2FC00230E9373
:1058E800D8F800300A90073323F0070303F10802C1
:1058F80094F81890D4F800B0C8F80020D3E9002331
:10590800C4E91223D4E9128A2AF000430B934FF01A
:10591800FF3240469C4B0B99FBF7E0F870BB4FF009
:10592800FF324046984B0B99FBF7BAF830BB002280
:10593800002340465146FBF7A9F810B12D2384F8FF
:105948004330924B9248B9F1470F94BF984680462E
:1059580003234FF0000A23612BF00403236033462E
:105968002146284600970FAA00F0D4F9013040F0EC
:1059780090804FF0FF3011B0BDE8F08F424653469B
:1059880040465146FBF7AAF848B1BAF1000FB8BF34
:105998002D238048B8BF84F843307F4BD3E7636832
:1059A80009F0DF015A1C42D10623636000220692E7
:1059B8000EAACDE904920DAA4BF4806303920DF16F
:1059C8003302CDE9013223606368424600932846DA
:1059D80053460B91FFF7D4FE0B99804647290D9942
:1059E80008D1C81C02DB6368994240DDA9F10209AD
:1059F8005FFA89F9B9F1650F1FD84A46013904F1F0
:105A080050000D91FFF71BFF0E9A82461318012ACA
:105A1800236102DC2268D20701D5013323619DF896
:105A28003330002B9BD02D2384F8433097E7472948
:105A3800BCD1002BBAD10123B7E7B9F1660F18D151
:105A4800002963680BDD216113B92268D00702D5EC
:105A580001330B4423614FF0000AA165DFE713B956
:105A68002268D20701D50233F4E70123F2E74FF0A9
:105A780067090E9B994205DB23682161D807EAD59F
:105A88004B1CE7E70029CCBF0122C1F102021344F5
:105A9800E0E723685A0507D4236942463146284679
:105AA800B84701302BD164E7B9F1650F40F2DD80CA
:105AB800D4E9120100220023FAF7DEFF002833D0D0
:105AC800012331462846354AB84701303FF451AFE3
